{
  "_format": "hh3-artifact-1",
  "contractName": "RNSBulkManager",
  "sourceName": "contracts/RNSBulkManager.sol",
  "abi": [
    {
      "inputs": [
        {
          "internalType": "address",
          "name": "_rnsRegistry",
          "type": "address"
        },
        {
          "internalType": "address",
          "name": "_rskOwner",
          "type": "address"
        },
        {
          "internalType": "address",
          "name": "_addrResolver",
          "type": "address"
        },
        {
          "internalType": "address",
          "name": "_fifsRegistrar",
          "type": "address"
        },
        {
          "internalType": "address",
          "name": "_renewer",
          "type": "address"
        },
        {
          "internalType": "address",
          "name": "_rifToken",
          "type": "address"
        }
      ],
      "stateMutability": "nonpayable",
      "type": "constructor"
    },
    {
      "anonymous": false,
      "inputs": [
        {
          "indexed": true,
          "internalType": "address",
          "name": "user",
          "type": "address"
        },
        {
          "indexed": false,
          "internalType": "uint256",
          "name": "count",
          "type": "uint256"
        }
      ],
      "name": "BulkAddressUpdate",
      "type": "event"
    },
    {
      "anonymous": false,
      "inputs": [
        {
          "indexed": true,
          "internalType": "address",
          "name": "user",
          "type": "address"
        },
        {
          "indexed": false,
          "internalType": "uint256",
          "name": "count",
          "type": "uint256"
        }
      ],
      "name": "BulkMultiChainAddressUpdate",
      "type": "event"
    },
    {
      "anonymous": false,
      "inputs": [
        {
          "indexed": true,
          "internalType": "address",
          "name": "user",
          "type": "address"
        },
        {
          "indexed": false,
          "internalType": "uint256",
          "name": "count",
          "type": "uint256"
        },
        {
          "indexed": false,
          "internalType": "uint256",
          "name": "totalCost",
          "type": "uint256"
        }
      ],
      "name": "BulkRegistration",
      "type": "event"
    },
    {
      "anonymous": false,
      "inputs": [
        {
          "indexed": true,
          "internalType": "address",
          "name": "user",
          "type": "address"
        },
        {
          "indexed": false,
          "internalType": "uint256",
          "name": "count",
          "type": "uint256"
        },
        {
          "indexed": false,
          "internalType": "uint256",
          "name": "totalCost",
          "type": "uint256"
        }
      ],
      "name": "BulkRenewal",
      "type": "event"
    },
    {
      "anonymous": false,
      "inputs": [
        {
          "indexed": true,
          "internalType": "uint256",
          "name": "index",
          "type": "uint256"
        },
        {
          "indexed": false,
          "internalType": "string",
          "name": "reason",
          "type": "string"
        }
      ],
      "name": "OperationFailed",
      "type": "event"
    },
    {
      "inputs": [],
      "name": "PRICE_PER_YEAR",
      "outputs": [
        {
          "internalType": "uint256",
          "name": "",
          "type": "uint256"
        }
      ],
      "stateMutability": "view",
      "type": "function"
    },
    {
      "inputs": [],
      "name": "addrResolver",
      "outputs": [
        {
          "internalType": "contract IAddrResolver",
          "name": "",
          "type": "address"
        }
      ],
      "stateMutability": "view",
      "type": "function"
    },
    {
      "inputs": [
        {
          "components": [
            {
              "internalType": "string",
              "name": "name",
              "type": "string"
            },
            {
              "internalType": "address",
              "name": "owner",
              "type": "address"
            },
            {
              "internalType": "bytes32",
              "name": "secret",
              "type": "bytes32"
            },
            {
              "internalType": "uint256",
              "name": "duration",
              "type": "uint256"
            },
            {
              "internalType": "address",
              "name": "addr",
              "type": "address"
            }
          ],
          "internalType": "struct RNSBulkManager.RegistrationRequest[]",
          "name": "requests",
          "type": "tuple[]"
        }
      ],
      "name": "bulkRegister",
      "outputs": [
        {
          "components": [
            {
              "internalType": "bool",
              "name": "success",
              "type": "bool"
            },
            {
              "internalType": "uint256",
              "name": "index",
              "type": "uint256"
            },
            {
              "internalType": "string",
              "name": "errorMessage",
              "type": "string"
            }
          ],
          "internalType": "struct RNSBulkManager.OperationResult[]",
          "name": "results",
          "type": "tuple[]"
        }
      ],
      "stateMutability": "nonpayable",
      "type": "function"
    },
    {
      "inputs": [
        {
          "components": [
            {
              "internalType": "string",
              "name": "name",
              "type": "string"
            },
            {
              "internalType": "uint256",
              "name": "duration",
              "type": "uint256"
            },
            {
              "internalType": "uint256",
              "name": "expires",
              "type": "uint256"
            }
          ],
          "internalType": "struct RNSBulkManager.RenewalRequest[]",
          "name": "requests",
          "type": "tuple[]"
        }
      ],
      "name": "bulkRenew",
      "outputs": [
        {
          "components": [
            {
              "internalType": "bool",
              "name": "success",
              "type": "bool"
            },
            {
              "internalType": "uint256",
              "name": "index",
              "type": "uint256"
            },
            {
              "internalType": "string",
              "name": "errorMessage",
              "type": "string"
            }
          ],
          "internalType": "struct RNSBulkManager.OperationResult[]",
          "name": "results",
          "type": "tuple[]"
        }
      ],
      "stateMutability": "nonpayable",
      "type": "function"
    },
    {
      "inputs": [
        {
          "components": [
            {
              "internalType": "uint256",
              "name": "tokenId",
              "type": "uint256"
            },
            {
              "internalType": "uint256",
              "name": "duration",
              "type": "uint256"
            }
          ],
          "internalType": "struct RNSBulkManager.TokenIdRenewal[]",
          "name": "requests",
          "type": "tuple[]"
        }
      ],
      "name": "bulkRenewByTokenId",
      "outputs": [
        {
          "components": [
            {
              "internalType": "bool",
              "name": "success",
              "type": "bool"
            },
            {
              "internalType": "uint256",
              "name": "index",
              "type": "uint256"
            },
            {
              "internalType": "string",
              "name": "errorMessage",
              "type": "string"
            }
          ],
          "internalType": "struct RNSBulkManager.OperationResult[]",
          "name": "results",
          "type": "tuple[]"
        }
      ],
      "stateMutability": "nonpayable",
      "type": "function"
    },
    {
      "inputs": [
        {
          "components": [
            {
              "internalType": "bytes32",
              "name": "node",
              "type": "bytes32"
            },
            {
              "internalType": "address",
              "name": "targetAddress",
              "type": "address"
            }
          ],
          "internalType": "struct RNSBulkManager.AddressUpdateRequest[]",
          "name": "requests",
          "type": "tuple[]"
        }
      ],
      "name": "bulkSetAddress",
      "outputs": [
        {
          "components": [
            {
              "internalType": "bool",
              "name": "success",
              "type": "bool"
            },
            {
              "internalType": "uint256",
              "name": "index",
              "type": "uint256"
            },
            {
              "internalType": "string",
              "name": "errorMessage",
              "type": "string"
            }
          ],
          "internalType": "struct RNSBulkManager.OperationResult[]",
          "name": "results",
          "type": "tuple[]"
        }
      ],
      "stateMutability": "nonpayable",
      "type": "function"
    },
    {
      "inputs": [
        {
          "components": [
            {
              "internalType": "bytes32",
              "name": "node",
              "type": "bytes32"
            },
            {
              "internalType": "uint256",
              "name": "coinType",
              "type": "uint256"
            },
            {
              "internalType": "bytes",
              "name": "targetAddress",
              "type": "bytes"
            }
          ],
          "internalType": "struct RNSBulkManager.MultiChainAddressUpdate[]",
          "name": "requests",
          "type": "tuple[]"
        }
      ],
      "name": "bulkSetMultiChainAddress",
      "outputs": [
        {
          "components": [
            {
              "internalType": "bool",
              "name": "success",
              "type": "bool"
            },
            {
              "internalType": "uint256",
              "name": "index",
              "type": "uint256"
            },
            {
              "internalType": "string",
              "name": "errorMessage",
              "type": "string"
            }
          ],
          "internalType": "struct RNSBulkManager.OperationResult[]",
          "name": "results",
          "type": "tuple[]"
        }
      ],
      "stateMutability": "nonpayable",
      "type": "function"
    },
    {
      "inputs": [
        {
          "internalType": "bytes32[]",
          "name": "nodes",
          "type": "bytes32[]"
        },
        {
          "internalType": "address",
          "name": "resolverAddress",
          "type": "address"
        }
      ],
      "name": "bulkSetResolver",
      "outputs": [
        {
          "components": [
            {
              "internalType": "bool",
              "name": "success",
              "type": "bool"
            },
            {
              "internalType": "uint256",
              "name": "index",
              "type": "uint256"
            },
            {
              "internalType": "string",
              "name": "errorMessage",
              "type": "string"
            }
          ],
          "internalType": "struct RNSBulkManager.OperationResult[]",
          "name": "results",
          "type": "tuple[]"
        }
      ],
      "stateMutability": "nonpayable",
      "type": "function"
    },
    {
      "inputs": [
        {
          "internalType": "string[]",
          "name": "names",
          "type": "string[]"
        },
        {
          "internalType": "uint256[]",
          "name": "durations",
          "type": "uint256[]"
        }
      ],
      "name": "calculateRegistrationCost",
      "outputs": [
        {
          "internalType": "uint256",
          "name": "totalCost",
          "type": "uint256"
        }
      ],
      "stateMutability": "pure",
      "type": "function"
    },
    {
      "inputs": [
        {
          "internalType": "string[]",
          "name": "names",
          "type": "string[]"
        },
        {
          "internalType": "uint256[]",
          "name": "expires",
          "type": "uint256[]"
        },
        {
          "internalType": "uint256[]",
          "name": "durations",
          "type": "uint256[]"
        }
      ],
      "name": "calculateRenewalCost",
      "outputs": [
        {
          "internalType": "uint256",
          "name": "totalCost",
          "type": "uint256"
        }
      ],
      "stateMutability": "view",
      "type": "function"
    },
    {
      "inputs": [],
      "name": "fifsRegistrar",
      "outputs": [
        {
          "internalType": "contract IFIFSRegistrar",
          "name": "",
          "type": "address"
        }
      ],
      "stateMutability": "view",
      "type": "function"
    },
    {
      "inputs": [
        {
          "internalType": "address[]",
          "name": "targets",
          "type": "address[]"
        },
        {
          "internalType": "bytes[]",
          "name": "callDatas",
          "type": "bytes[]"
        }
      ],
      "name": "multicall",
      "outputs": [
        {
          "internalType": "bool[]",
          "name": "successes",
          "type": "bool[]"
        },
        {
          "internalType": "bytes[]",
          "name": "results",
          "type": "bytes[]"
        }
      ],
      "stateMutability": "nonpayable",
      "type": "function"
    },
    {
      "inputs": [
        {
          "internalType": "address",
          "name": "tokenAddress",
          "type": "address"
        },
        {
          "internalType": "uint256",
          "name": "amount",
          "type": "uint256"
        }
      ],
      "name": "recoverTokens",
      "outputs": [],
      "stateMutability": "nonpayable",
      "type": "function"
    },
    {
      "inputs": [],
      "name": "renewer",
      "outputs": [
        {
          "internalType": "contract IRenewer",
          "name": "",
          "type": "address"
        }
      ],
      "stateMutability": "view",
      "type": "function"
    },
    {
      "inputs": [],
      "name": "rifToken",
      "outputs": [
        {
          "internalType": "contract IERC20",
          "name": "",
          "type": "address"
        }
      ],
      "stateMutability": "view",
      "type": "function"
    },
    {
      "inputs": [],
      "name": "rnsRegistry",
      "outputs": [
        {
          "internalType": "contract IRNS",
          "name": "",
          "type": "address"
        }
      ],
      "stateMutability": "view",
      "type": "function"
    },
    {
      "inputs": [],
      "name": "rskOwner",
      "outputs": [
        {
          "internalType": "contract IRSKOwner",
          "name": "",
          "type": "address"
        }
      ],
      "stateMutability": "view",
      "type": "function"
    },
    {
      "inputs": [
        {
          "internalType": "bytes32[]",
          "name": "nodes",
          "type": "bytes32[]"
        }
      ],
      "name": "verifyOwnership",
      "outputs": [
        {
          "internalType": "bool[]",
          "name": "ownedNodes",
          "type": "bool[]"
        }
      ],
      "stateMutability": "view",
      "type": "function"
    }
  ],
  "bytecode": "0x61014060405234801562000011575f80fd5b50604051620038133803806200381383398101604081905262000034916200026e565b6001600160a01b038616620000905760405162461bcd60e51b815260206004820152601460248201527f496e76616c696420524e5320526567697374727900000000000000000000000060448201526064015b60405180910390fd5b6001600160a01b038516620000dc5760405162461bcd60e51b815260206004820152601160248201527024b73b30b634b2102929a59027bbb732b960791b604482015260640162000087565b6001600160a01b038416620001345760405162461bcd60e51b815260206004820152601560248201527f496e76616c69642041646472205265736f6c7665720000000000000000000000604482015260640162000087565b6001600160a01b0383166200018c5760405162461bcd60e51b815260206004820152601660248201527f496e76616c696420464946532052656769737472617200000000000000000000604482015260640162000087565b6001600160a01b038216620001d65760405162461bcd60e51b815260206004820152600f60248201526e24b73b30b634b2102932b732bbb2b960891b604482015260640162000087565b6001600160a01b038116620002225760405162461bcd60e51b815260206004820152601160248201527024b73b30b634b2102924a3102a37b5b2b760791b604482015260640162000087565b6001600160a01b0395861660805293851660a05291841660c052831660e0528216610100521661012052620002eb565b80516001600160a01b038116811462000269575f80fd5b919050565b5f805f805f8060c0878903121562000284575f80fd5b6200028f8762000252565b95506200029f6020880162000252565b9450620002af6040880162000252565b9350620002bf6060880162000252565b9250620002cf6080880162000252565b9150620002df60a0880162000252565b90509295509295509295565b60805160a05160c05160e0516101005161012051613462620003b15f395f818161019901528181610e9501528181610f9501528181611a5f0152611b5f01525f818161022601528181610c8201528181610f66015281816110570152612a9101525f818161031601528181611b300152611c2101525f81816101ff0152818161082301526115cd01525f81816101d8015261223501525f81816102e00152818161045001528181610651015281816114040152818161262501526127ec01526134625ff3fe608060405234801561000f575f80fd5b5060043610610111575f3560e01c806358dd09701161009e5780637a997cce1161006e5780637a997cce146102b5578063b35ca70a146102c8578063eafd5ef7146102db578063eede3e3314610302578063fd3fa18114610311575f80fd5b806358dd09701461025b578063620520f71461026e57806363fb0b961461028157806369cc5b21146102a2575f80fd5b8063262ec4a9116100e4578063262ec4a91461019457806335010abf146101d357806337eb1309146101fa578063453a19f6146102215780634eef59ef14610248575f80fd5b8063069c9fae146101155780630c82a9d71461012a5780630c9c39cc146101535780630e132bba14610173575b5f80fd5b610128610123366004612bb2565b610338565b005b61013d610138366004612c23565b6103fe565b60405161014a9190612c9c565b60405180910390f35b610166610161366004612c23565b61056c565b60405161014a9190612cf8565b610186610181366004612d77565b610b08565b60405190815260200161014a565b6101bb7f000000000000000000000000000000000000000000000000000000000000000081565b6040516001600160a01b03909116815260200161014a565b6101bb7f000000000000000000000000000000000000000000000000000000000000000081565b6101bb7f000000000000000000000000000000000000000000000000000000000000000081565b6101bb7f000000000000000000000000000000000000000000000000000000000000000081565b610166610256366004612c23565b610bcd565b610166610269366004612e1d565b61131f565b61016661027c366004612c23565b61187e565b61029461028f366004612d77565b611f69565b60405161014a929190612e4f565b6101666102b0366004612e1d565b612181565b6101666102c3366004612ebf565b6124c6565b6101866102d6366004612f11565b612a46565b6101bb7f000000000000000000000000000000000000000000000000000000000000000081565b61018667016345785d8a000081565b6101bb7f000000000000000000000000000000000000000000000000000000000000000081565b6001600160a01b03821661038b5760405162461bcd60e51b8152602060048201526015602482015274496e76616c696420746f6b656e206164647265737360581b60448201526064015b60405180910390fd5b60405163a9059cbb60e01b8152336004820152602481018290526001600160a01b0383169063a9059cbb906044016020604051808303815f875af11580156103d5573d5f803e3d5ffd5b505050506040513d601f19601f820116820180604052508101906103f99190612fa3565b505050565b6060816001600160401b0381111561041857610418612fc2565b604051908082528060200260200182016040528015610441578160200160208202803683370190505b5090505f5b82811015610564577f00000000000000000000000000000000000000000000000000000000000000006001600160a01b03166302571be385858481811061048f5761048f612fd6565b905060200201356040518263ffffffff1660e01b81526004016104b491815260200190565b602060405180830381865afa9250505080156104ed575060408051601f3d908101601f191682019092526104ea91810190612fea565b60015b610519575f82828151811061050457610504612fd6565b91151560209283029190910190910152610552565b336001600160a01b0316816001600160a01b03161483838151811061054057610540612fd6565b91151560209283029190910190910152505b8061055c81613019565b915050610446565b505b92915050565b60608161058b5760405162461bcd60e51b815260040161038290613031565b60648211156105dc5760405162461bcd60e51b815260206004820152601b60248201527f546f6f206d616e7920726571756573747320286d6178203130302900000000006044820152606401610382565b816001600160401b038111156105f4576105f4612fc2565b60405190808252806020026020018201604052801561064057816020015b60408051606080820183525f8083526020830152918101919091528152602001906001900390816106125790505b5090505f805b83811015610aca575f7f00000000000000000000000000000000000000000000000000000000000000006001600160a01b03166302571be387878581811061069057610690612fd6565b90506020028101906106a2919061305e565b60405160e083901b6001600160e01b031916815290356004820152602401602060405180830381865afa9250505080156106f9575060408051601f3d908101601f191682019092526106f691810190612fea565b60015b6107925760405180606001604052805f151581526020018381526020016040518060400160405280601a8152602001792330b4b632b2103a379033b2ba103237b6b0b4b71037bbb732b960311b81525081525084838151811061075e5761075e612fd6565b6020026020010181905250815f805160206133ec8339815191526040516107849061307c565b60405180910390a250610ab8565b90506001600160a01b03811633146108215760405180606001604052805f151581526020018381526020016040518060400160405280601081526020016f2737ba103237b6b0b4b71037bbb732b960811b8152508152508483815181106107fb576107fb612fd6565b6020026020010181905250815f805160206133ec833981519152604051610784906130b0565b7f00000000000000000000000000000000000000000000000000000000000000006001600160a01b0316638b95dd7187878581811061086257610862612fd6565b9050602002810190610874919061305e565b3588888681811061088757610887612fd6565b9050602002810190610899919061305e565b602001358989878181106108af576108af612fd6565b90506020028101906108c1919061305e565b6108cf9060408101906130da565b6040518563ffffffff1660e01b81526004016108ee9493929190613144565b5f604051808303815f87803b158015610905575f80fd5b505af1925050508015610916575060015b610a5e5761092261316d565b806308c379a0036109a657506109366131be565b8061094157506109a8565b60405180606001604052805f151581526020018481526020018281525085848151811061097057610970612fd6565b6020026020010181905250825f805160206133ec833981519152826040516109989190613246565b60405180910390a250610ab6565b505b60405180606001604052805f1515815260200183815260200160405180606001604052806021815260200161340c602191398152508483815181106109ef576109ef612fd6565b6020026020010181905250815f805160206133ec833981519152604051610a519060208082526021908201527f4d756c74692d636861696e206164647265737320757064617465206661696c656040820152601960fa1b606082015260800190565b60405180910390a2610ab6565b604051806060016040528060011515815260200183815260200160405180602001604052805f815250815250848381518110610a9c57610a9c612fd6565b60200260200101819052508280610ab290613019565b9350505b505b80610ac281613019565b915050610646565b5060405181815233907f61ea0815db8acf3ca69d0f83c41560397e39235b08b0e13ac980f5b31eb1b951906020015b60405180910390a25092915050565b5f838214610b285760405162461bcd60e51b815260040161038290613258565b5f5b84811015610bc4575f6301e13380858584818110610b4a57610b4a612fd6565b905060200201356064610b5d9190613287565b610b67919061329e565b90505f6064610b7e8367016345785d8a0000613287565b610b88919061329e565b9050662386f26fc10000811015610ba35750662386f26fc100005b610bad81856132bd565b935050508080610bbc90613019565b915050610b2a565b50949350505050565b606081610bec5760405162461bcd60e51b815260040161038290613031565b6032821115610c0d5760405162461bcd60e51b8152600401610382906132d0565b816001600160401b03811115610c2557610c25612fc2565b604051908082528060200260200182016040528015610c7157816020015b60408051606080820183525f808352602083015291810191909152815260200190600190039081610c435790505b5090505f805f5b84811015610e72577f00000000000000000000000000000000000000000000000000000000000000006001600160a01b03166350e9a715878784818110610cc157610cc1612fd6565b9050602002810190610cd3919061305e565b610cdd90806130da565b898986818110610cef57610cef612fd6565b9050602002810190610d01919061305e565b604001358a8a87818110610d1757610d17612fd6565b9050602002810190610d29919061305e565b602001356040518563ffffffff1660e01b8152600401610d4c9493929190613307565b602060405180830381865afa925050508015610d85575060408051601f3d908101601f19168201909252610d829181019061332d565b60015b610e525760405180606001604052805f151581526020018281526020016040518060400160405280601b81526020017f4661696c656420746f206765742072656e6577616c2070726963650000000000815250815250848281518110610ded57610ded612fd6565b6020026020010181905250805f805160206133ec833981519152604051610e45906020808252601b908201527f4661696c656420746f206765742072656e6577616c2070726963650000000000604082015260600190565b60405180910390a2610e60565b610e5c81846132bd565b9250505b80610e6a81613019565b915050610c78565b506040516323b872dd60e01b8152336004820152306024820152604481018290527f00000000000000000000000000000000000000000000000000000000000000006001600160a01b0316906323b872dd906064016020604051808303815f875af1158015610ee3573d5f803e3d5ffd5b505050506040513d601f19601f82011682018060405250810190610f079190612fa3565b610f4f5760405162461bcd60e51b8152602060048201526019602482015278149251881d1bdad95b881d1c985b9cd9995c8819985a5b1959603a1b6044820152606401610382565b60405163095ea7b360e01b81526001600160a01b037f000000000000000000000000000000000000000000000000000000000000000081166004830152602482018390527f0000000000000000000000000000000000000000000000000000000000000000169063095ea7b3906044016020604051808303815f875af1158015610fdb573d5f803e3d5ffd5b505050506040513d601f19601f82011682018060405250810190610fff9190612fa3565b505f5b848110156112da5783818151811061101c5761101c612fd6565b60200260200101515f015115801561105157505f84828151811061104257611042612fd6565b60200260200101516040015151115b6112c8577f00000000000000000000000000000000000000000000000000000000000000006001600160a01b031663acf1a84187878481811061109657611096612fd6565b90506020028101906110a8919061305e565b6110b290806130da565b8989868181106110c4576110c4612fd6565b90506020028101906110d6919061305e565b602001356040518463ffffffff1660e01b81526004016110f893929190613344565b6020604051808303815f875af1925050508015611132575060408051601f3d908101601f1916820190925261112f9181019061332d565b60015b61126f5761113e61316d565b806308c379a0036111c257506111526131be565b8061115d57506111c4565b60405180606001604052805f151581526020018381526020018281525085838151811061118c5761118c612fd6565b6020026020010181905250815f805160206133ec833981519152826040516111b49190613246565b60405180910390a2506112c8565b505b60405180606001604052805f151581526020018281526020016040518060400160405280600e81526020016d14995b995dd85b0819985a5b195960921b81525081525084828151811061121957611219612fd6565b6020026020010181905250805f805160206133ec833981519152604051611262906020808252600e908201526d14995b995dd85b0819985a5b195960921b604082015260600190565b60405180910390a26112c8565b50604051806060016040528060011515815260200182815260200160405180602001604052805f8152508152508482815181106112ae576112ae612fd6565b602002602001018190525082806112c490613019565b9350505b806112d281613019565b915050611002565b50604080518381526020810183905233917f549796789b5a5fdfa7acdf1943ce93ef5ab4f43b61fcde8a4e531594d4bd029191015b60405180910390a2505092915050565b60608161133e5760405162461bcd60e51b815260040161038290613031565b606482111561138f5760405162461bcd60e51b815260206004820152601b60248201527f546f6f206d616e7920726571756573747320286d6178203130302900000000006044820152606401610382565b816001600160401b038111156113a7576113a7612fc2565b6040519080825280602002602001820160405280156113f357816020015b60408051606080820183525f8083526020830152918101919091528152602001906001900390816113c55790505b5090505f805b8381101561184b575f7f00000000000000000000000000000000000000000000000000000000000000006001600160a01b03166302571be387878581811061144357611443612fd6565b9050604002015f01356040518263ffffffff1660e01b815260040161146a91815260200190565b602060405180830381865afa9250505080156114a3575060408051601f3d908101601f191682019092526114a091810190612fea565b60015b61153c5760405180606001604052805f151581526020018381526020016040518060400160405280601a8152602001792330b4b632b2103a379033b2ba103237b6b0b4b71037bbb732b960311b81525081525084838151811061150857611508612fd6565b6020026020010181905250815f805160206133ec83398151915260405161152e9061307c565b60405180910390a250611839565b90506001600160a01b03811633146115cb5760405180606001604052805f151581526020018381526020016040518060400160405280601081526020016f2737ba103237b6b0b4b71037bbb732b960811b8152508152508483815181106115a5576115a5612fd6565b6020026020010181905250815f805160206133ec83398151915260405161152e906130b0565b7f00000000000000000000000000000000000000000000000000000000000000006001600160a01b031663d5fa2b0087878581811061160c5761160c612fd6565b9050604002015f013588888681811061162757611627612fd6565b905060400201602001602081019061163f9190613367565b6040516001600160e01b031960e085901b16815260048101929092526001600160a01b031660248201526044015f604051808303815f87803b158015611683575f80fd5b505af1925050508015611694575060015b6117df576116a061316d565b806308c379a00361172457506116b46131be565b806116bf5750611726565b60405180606001604052805f15158152602001848152602001828152508584815181106116ee576116ee612fd6565b6020026020010181905250825f805160206133ec833981519152826040516117169190613246565b60405180910390a250611837565b505b60405180606001604052805f15158152602001838152602001604051806040016040528060158152602001741059191c995cdcc81d5c19185d194819985a5b1959605a1b81525081525084838151811061178257611782612fd6565b6020026020010181905250815f805160206133ec8339815191526040516117d2906020808252601590820152741059191c995cdcc81d5c19185d194819985a5b1959605a1b604082015260600190565b60405180910390a2611837565b604051806060016040528060011515815260200183815260200160405180602001604052805f81525081525084838151811061181d5761181d612fd6565b6020026020010181905250828061183390613019565b9350505b505b8061184381613019565b9150506113f9565b5060405181815233907fecf172bb40bfc8da43de792a813b35e4af8c48882d3736c823f3ded4783e38fb90602001610af9565b60608161189d5760405162461bcd60e51b815260040161038290613031565b60328211156118be5760405162461bcd60e51b8152600401610382906132d0565b816001600160401b038111156118d6576118d6612fc2565b60405190808252806020026020018201604052801561192257816020015b60408051606080820183525f8083526020830152918101919091528152602001906001900390816118f45790505b5090505f805f5b848110156119d1575f6301e1338087878481811061194957611949612fd6565b905060200281019061195b9190613382565b61196a90606001356064613287565b611974919061329e565b90505f606461198b8367016345785d8a0000613287565b611995919061329e565b9050662386f26fc100008110156119b05750662386f26fc100005b6119ba81856132bd565b9350505080806119c990613019565b915050611929565b50805f03611a3d5760405162461bcd60e51b815260206004820152603360248201527f416c6c20726567697374726174696f6e73206661696c65643a20556e61626c6560448201527220746f2063616c63756c61746520707269636560681b6064820152608401610382565b6040516323b872dd60e01b8152336004820152306024820152604481018290527f00000000000000000000000000000000000000000000000000000000000000006001600160a01b0316906323b872dd906064016020604051808303815f875af1158015611aad573d5f803e3d5ffd5b505050506040513d601f19601f82011682018060405250810190611ad19190612fa3565b611b195760405162461bcd60e51b8152602060048201526019602482015278149251881d1bdad95b881d1c985b9cd9995c8819985a5b1959603a1b6044820152606401610382565b60405163095ea7b360e01b81526001600160a01b037f000000000000000000000000000000000000000000000000000000000000000081166004830152602482018390527f0000000000000000000000000000000000000000000000000000000000000000169063095ea7b3906044016020604051808303815f875af1158015611ba5573d5f803e3d5ffd5b505050506040513d601f19601f82011682018060405250810190611bc99190612fa3565b505f5b84811015611f3057838181518110611be657611be6612fd6565b60200260200101515f0151158015611c1b57505f848281518110611c0c57611c0c612fd6565b60200260200101516040015151115b611f1e577f00000000000000000000000000000000000000000000000000000000000000006001600160a01b03166357226363878784818110611c6057611c60612fd6565b9050602002810190611c729190613382565b611c7c90806130da565b898986818110611c8e57611c8e612fd6565b9050602002810190611ca09190613382565b611cb1906040810190602001613367565b8a8a87818110611cc357611cc3612fd6565b9050602002810190611cd59190613382565b604001358b8b88818110611ceb57611ceb612fd6565b9050602002810190611cfd9190613382565b606001358c8c89818110611d1357611d13612fd6565b9050602002810190611d259190613382565b611d369060a0810190608001613367565b6040518763ffffffff1660e01b8152600401611d5796959493929190613396565b5f604051808303815f87803b158015611d6e575f80fd5b505af1925050508015611d7f575060015b611ec657611d8b61316d565b806308c379a003611e0f5750611d9f6131be565b80611daa5750611e11565b60405180606001604052805f1515815260200183815260200182815250858381518110611dd957611dd9612fd6565b6020026020010181905250815f805160206133ec83398151915282604051611e019190613246565b60405180910390a250611f1e565b505b60405180606001604052805f1515815260200182815260200160405180604001604052806013815260200172149959da5cdd1c985d1a5bdb8819985a5b1959606a1b815250815250848281518110611e6b57611e6b612fd6565b6020026020010181905250805f805160206133ec833981519152604051611eb990602080825260139082015272149959da5cdd1c985d1a5bdb8819985a5b1959606a1b604082015260600190565b60405180910390a2611f1e565b604051806060016040528060011515815260200182815260200160405180602001604052805f815250815250848281518110611f0457611f04612fd6565b60200260200101819052508280611f1a90613019565b9350505b80611f2881613019565b915050611bcc565b50604080518381526020810183905233917f8c9589a0881a9774f33437859c85a770c135e3c7e84f9ce6ac4b4b75dbcf8fb4910161130f565b606080848314611f8b5760405162461bcd60e51b815260040161038290613258565b6032851115611fdc5760405162461bcd60e51b815260206004820152601760248201527f546f6f206d616e792063616c6c7320286d6178203530290000000000000000006044820152606401610382565b846001600160401b03811115611ff457611ff4612fc2565b60405190808252806020026020018201604052801561201d578160200160208202803683370190505b509150846001600160401b0381111561203857612038612fc2565b60405190808252806020026020018201604052801561206b57816020015b60608152602001906001900390816120565790505b5090505f5b85811015612177575f8088888481811061208c5761208c612fd6565b90506020020160208101906120a19190613367565b6001600160a01b03168787858181106120bc576120bc612fd6565b90506020028101906120ce91906130da565b6040516120dc9291906133dc565b5f604051808303815f865af19150503d805f8114612115576040519150601f19603f3d011682016040523d82523d5f602084013e61211a565b606091505b50915091508185848151811061213257612132612fd6565b6020026020010190151590811515815250508084848151811061215757612157612fd6565b60200260200101819052505050808061216f90613019565b915050612070565b5094509492505050565b6060816121a05760405162461bcd60e51b815260040161038290613031565b60328211156121c15760405162461bcd60e51b8152600401610382906132d0565b816001600160401b038111156121d9576121d9612fc2565b60405190808252806020026020018201604052801561222557816020015b60408051606080820183525f8083526020830152918101919091528152602001906001900390816121f75790505b5090505f805b8381101561248e577f00000000000000000000000000000000000000000000000000000000000000006001600160a01b031663c475abff86868481811061227457612274612fd6565b9050604002015f013587878581811061228f5761228f612fd6565b905060400201602001356040518363ffffffff1660e01b81526004016122bf929190918252602082015260400190565b5f604051808303815f87803b1580156122d6575f80fd5b505af19250505080156122e7575060015b612424576122f361316d565b806308c379a00361237757506123076131be565b806123125750612379565b60405180606001604052805f151581526020018381526020018281525084838151811061234157612341612fd6565b6020026020010181905250815f805160206133ec833981519152826040516123699190613246565b60405180910390a25061247c565b505b60405180606001604052805f151581526020018281526020016040518060400160405280600e81526020016d14995b995dd85b0819985a5b195960921b8152508152508382815181106123ce576123ce612fd6565b6020026020010181905250805f805160206133ec833981519152604051612417906020808252600e908201526d14995b995dd85b0819985a5b195960921b604082015260600190565b60405180910390a261247c565b604051806060016040528060011515815260200182815260200160405180602001604052805f81525081525083828151811061246257612462612fd6565b6020026020010181905250818061247890613019565b9250505b8061248681613019565b91505061222b565b50604080518281525f602082015233917f549796789b5a5fdfa7acdf1943ce93ef5ab4f43b61fcde8a4e531594d4bd02919101610af9565b6060826125095760405162461bcd60e51b8152602060048201526011602482015270456d707479206e6f64657320617272617960781b6044820152606401610382565b606483111561255a5760405162461bcd60e51b815260206004820152601860248201527f546f6f206d616e79206e6f64657320286d6178203130302900000000000000006044820152606401610382565b6001600160a01b0382166125b05760405162461bcd60e51b815260206004820152601860248201527f496e76616c6964207265736f6c766572206164647265737300000000000000006044820152606401610382565b826001600160401b038111156125c8576125c8612fc2565b60405190808252806020026020018201604052801561261457816020015b60408051606080820183525f8083526020830152918101919091528152602001906001900390816125e65790505b5090505f805b84811015612a3d575f7f00000000000000000000000000000000000000000000000000000000000000006001600160a01b03166302571be388888581811061266457612664612fd6565b905060200201356040518263ffffffff1660e01b815260040161268991815260200190565b602060405180830381865afa9250505080156126c2575060408051601f3d908101601f191682019092526126bf91810190612fea565b60015b61275b5760405180606001604052805f151581526020018381526020016040518060400160405280601a8152602001792330b4b632b2103a379033b2ba103237b6b0b4b71037bbb732b960311b81525081525084838151811061272757612727612fd6565b6020026020010181905250815f805160206133ec83398151915260405161274d9061307c565b60405180910390a250612a2b565b90506001600160a01b03811633146127ea5760405180606001604052805f151581526020018381526020016040518060400160405280601081526020016f2737ba103237b6b0b4b71037bbb732b960811b8152508152508483815181106127c4576127c4612fd6565b6020026020010181905250815f805160206133ec83398151915260405161274d906130b0565b7f00000000000000000000000000000000000000000000000000000000000000006001600160a01b0316631896f70a88888581811061282b5761282b612fd6565b90506020020135876040518363ffffffff1660e01b81526004016128629291909182526001600160a01b0316602082015260400190565b5f604051808303815f87803b158015612879575f80fd5b505af192505050801561288a575060015b6129d15761289661316d565b806308c379a00361291a57506128aa6131be565b806128b5575061291c565b60405180606001604052805f15158152602001848152602001828152508584815181106128e4576128e4612fd6565b6020026020010181905250825f805160206133ec8339815191528260405161290c9190613246565b60405180910390a250612a29565b505b60405180606001604052805f151581526020018381526020016040518060400160405280601381526020017214d95d081c995cdbdb1d995c8819985a5b1959606a1b81525081525084838151811061297657612976612fd6565b6020026020010181905250815f805160206133ec8339815191526040516129c49060208082526013908201527214d95d081c995cdbdb1d995c8819985a5b1959606a1b604082015260600190565b60405180910390a2612a29565b604051806060016040528060011515815260200183815260200160405180602001604052805f815250815250848381518110612a0f57612a0f612fd6565b60200260200101819052508280612a2590613019565b9350505b505b80612a3581613019565b91505061261a565b50509392505050565b5f858214612a665760405162461bcd60e51b815260040161038290613258565b858414612a855760405162461bcd60e51b815260040161038290613258565b5f5b86811015612b90577f00000000000000000000000000000000000000000000000000000000000000006001600160a01b03166350e9a715898984818110612ad057612ad0612fd6565b9050602002810190612ae291906130da565b898986818110612af457612af4612fd6565b90506020020135888887818110612b0d57612b0d612fd6565b905060200201356040518563ffffffff1660e01b8152600401612b339493929190613307565b602060405180830381865afa158015612b4e573d5f803e3d5ffd5b505050506040513d601f19601f82011682018060405250810190612b72919061332d565b612b7c90836132bd565b915080612b8881613019565b915050612a87565b509695505050505050565b6001600160a01b0381168114612baf575f80fd5b50565b5f8060408385031215612bc3575f80fd5b8235612bce81612b9b565b946020939093013593505050565b5f8083601f840112612bec575f80fd5b5081356001600160401b03811115612c02575f80fd5b6020830191508360208260051b8501011115612c1c575f80fd5b9250929050565b5f8060208385031215612c34575f80fd5b82356001600160401b03811115612c49575f80fd5b612c5585828601612bdc565b90969095509350505050565b5f8151808452602080850194508084015f5b83811015612c91578151151587529582019590820190600101612c73565b509495945050505050565b602081525f612cae6020830184612c61565b9392505050565b5f81518084525f5b81811015612cd957602081850181015186830182015201612cbd565b505f602082860101526020601f19601f83011685010191505092915050565b5f6020808301818452808551808352604092508286019150828160051b8701018488015f5b83811015612d6957888303603f19018552815180511515845287810151888501528601516060878501819052612d5581860183612cb5565b968901969450505090860190600101612d1d565b509098975050505050505050565b5f805f8060408587031215612d8a575f80fd5b84356001600160401b0380821115612da0575f80fd5b612dac88838901612bdc565b90965094506020870135915080821115612dc4575f80fd5b50612dd187828801612bdc565b95989497509550505050565b5f8083601f840112612ded575f80fd5b5081356001600160401b03811115612e03575f80fd5b6020830191508360208260061b8501011115612c1c575f80fd5b5f8060208385031215612e2e575f80fd5b82356001600160401b03811115612e43575f80fd5b612c5585828601612ddd565b604081525f612e616040830185612c61565b6020838203818501528185518084528284019150828160051b8501018388015f5b83811015612eb057601f19878403018552612e9e838351612cb5565b94860194925090850190600101612e82565b50909998505050505050505050565b5f805f60408486031215612ed1575f80fd5b83356001600160401b03811115612ee6575f80fd5b612ef286828701612bdc565b9094509250506020840135612f0681612b9b565b809150509250925092565b5f805f805f8060608789031215612f26575f80fd5b86356001600160401b0380821115612f3c575f80fd5b612f488a838b01612bdc565b90985096506020890135915080821115612f60575f80fd5b612f6c8a838b01612bdc565b90965094506040890135915080821115612f84575f80fd5b50612f9189828a01612bdc565b979a9699509497509295939492505050565b5f60208284031215612fb3575f80fd5b81518015158114612cae575f80fd5b634e487b7160e01b5f52604160045260245ffd5b634e487b7160e01b5f52603260045260245ffd5b5f60208284031215612ffa575f80fd5b8151612cae81612b9b565b634e487b7160e01b5f52601160045260245ffd5b5f6001820161302a5761302a613005565b5060010190565b602080825260139082015272456d707479207265717565737420617272617960681b604082015260600190565b5f8235605e19833603018112613072575f80fd5b9190910192915050565b6020808252601a90820152792330b4b632b2103a379033b2ba103237b6b0b4b71037bbb732b960311b604082015260600190565b60208082526010908201526f2737ba103237b6b0b4b71037bbb732b960811b604082015260600190565b5f808335601e198436030181126130ef575f80fd5b8301803591506001600160401b03821115613108575f80fd5b602001915036819003821315612c1c575f80fd5b81835281816020850137505f828201602090810191909152601f909101601f19169091010190565b848152836020820152606060408201525f61316360608301848661311c565b9695505050505050565b5f60033d11156131835760045f803e505f5160e01c5b90565b601f8201601f191681016001600160401b03811182821017156131b757634e487b7160e01b5f52604160045260245ffd5b6040525050565b5f60443d10156131cb5790565b6040516003193d81016004833e81513d6001600160401b0381602484011181841117156131fa57505050505090565b82850191508151818111156132125750505050505090565b843d870101602082850101111561322c5750505050505090565b61323b60208286010187613186565b509095945050505050565b602081525f612cae6020830184612cb5565b602080825260159082015274082e4e4c2f240d8cadccee8d040dad2e6dac2e8c6d605b1b604082015260600190565b808202811582820484141761056657610566613005565b5f826132b857634e487b7160e01b5f52601260045260245ffd5b500490565b8082018082111561056657610566613005565b6020808252601a908201527f546f6f206d616e7920726571756573747320286d617820353029000000000000604082015260600190565b606081525f61331a60608301868861311c565b6020830194909452506040015292915050565b5f6020828403121561333d575f80fd5b5051919050565b604081525f61335760408301858761311c565b9050826020830152949350505050565b5f60208284031215613377575f80fd5b8135612cae81612b9b565b5f8235609e19833603018112613072575f80fd5b60a081525f6133a960a08301888a61311c565b6001600160a01b039687166020840152604083019590955250606081019290925290921660809092019190915292915050565b818382375f910190815291905056fe922018c9e0e3792fd6f2935189a91548c9ea62e37498aab6e2c0c571c2b9793a4d756c74692d636861696e206164647265737320757064617465206661696c6564a26469706673582212204de1bf3d8217043d43a5da1603e50e2a3710c6e649a604c345097e01ad2593f464736f6c63430008140033",
  "linkReferences": {},
  "deployedLinkReferences": {},
  "immutableReferences": {
    "11": [
      {
        "length": 32,
        "start": 736
      },
      {
        "length": 32,
        "start": 1104
      },
      {
        "length": 32,
        "start": 1617
      },
      {
        "length": 32,
        "start": 5124
      },
      {
        "length": 32,
        "start": 9765
      },
      {
        "length": 32,
        "start": 10220
      }
    ],
    "14": [
      {
        "length": 32,
        "start": 472
      },
      {
        "length": 32,
        "start": 8757
      }
    ],
    "17": [
      {
        "length": 32,
        "start": 511
      },
      {
        "length": 32,
        "start": 2083
      },
      {
        "length": 32,
        "start": 5581
      }
    ],
    "20": [
      {
        "length": 32,
        "start": 790
      },
      {
        "length": 32,
        "start": 6960
      },
      {
        "length": 32,
        "start": 7201
      }
    ],
    "23": [
      {
        "length": 32,
        "start": 550
      },
      {
        "length": 32,
        "start": 3202
      },
      {
        "length": 32,
        "start": 3942
      },
      {
        "length": 32,
        "start": 4183
      },
      {
        "length": 32,
        "start": 10897
      }
    ],
    "26": [
      {
        "length": 32,
        "start": 409
      },
      {
        "length": 32,
        "start": 3733
      },
      {
        "length": 32,
        "start": 3989
      },
      {
        "length": 32,
        "start": 6751
      },
      {
        "length": 32,
        "start": 7007
      }
    ]
  },
  "inputSourceName": "project/contracts/RNSBulkManager.sol",
  "buildInfoId": "solc-0_8_20-7ff9722c384eb562760cf660f0f1616197484618"
}