{
  "_format": "hh3-artifact-1",
  "contractName": "RNSBulkManager",
  "sourceName": "contracts/RNSBulkManager.sol",
  "abi": [
    {
      "inputs": [
        {
          "internalType": "address",
          "name": "_rnsRegistry",
          "type": "address"
        },
        {
          "internalType": "address",
          "name": "_rskOwner",
          "type": "address"
        },
        {
          "internalType": "address",
          "name": "_addrResolver",
          "type": "address"
        },
        {
          "internalType": "address",
          "name": "_fifsRegistrar",
          "type": "address"
        },
        {
          "internalType": "address",
          "name": "_renewer",
          "type": "address"
        },
        {
          "internalType": "address",
          "name": "_rifToken",
          "type": "address"
        }
      ],
      "stateMutability": "nonpayable",
      "type": "constructor"
    },
    {
      "anonymous": false,
      "inputs": [
        {
          "indexed": true,
          "internalType": "address",
          "name": "user",
          "type": "address"
        },
        {
          "indexed": false,
          "internalType": "uint256",
          "name": "count",
          "type": "uint256"
        }
      ],
      "name": "BulkAddressUpdate",
      "type": "event"
    },
    {
      "anonymous": false,
      "inputs": [
        {
          "indexed": true,
          "internalType": "address",
          "name": "user",
          "type": "address"
        },
        {
          "indexed": false,
          "internalType": "uint256",
          "name": "count",
          "type": "uint256"
        }
      ],
      "name": "BulkMultiChainAddressUpdate",
      "type": "event"
    },
    {
      "anonymous": false,
      "inputs": [
        {
          "indexed": true,
          "internalType": "address",
          "name": "user",
          "type": "address"
        },
        {
          "indexed": false,
          "internalType": "uint256",
          "name": "count",
          "type": "uint256"
        },
        {
          "indexed": false,
          "internalType": "uint256",
          "name": "totalCost",
          "type": "uint256"
        }
      ],
      "name": "BulkRegistration",
      "type": "event"
    },
    {
      "anonymous": false,
      "inputs": [
        {
          "indexed": true,
          "internalType": "address",
          "name": "user",
          "type": "address"
        },
        {
          "indexed": false,
          "internalType": "uint256",
          "name": "count",
          "type": "uint256"
        },
        {
          "indexed": false,
          "internalType": "uint256",
          "name": "totalCost",
          "type": "uint256"
        }
      ],
      "name": "BulkRenewal",
      "type": "event"
    },
    {
      "anonymous": false,
      "inputs": [
        {
          "indexed": true,
          "internalType": "uint256",
          "name": "index",
          "type": "uint256"
        },
        {
          "indexed": false,
          "internalType": "string",
          "name": "reason",
          "type": "string"
        }
      ],
      "name": "OperationFailed",
      "type": "event"
    },
    {
      "inputs": [],
      "name": "addrResolver",
      "outputs": [
        {
          "internalType": "contract IAddrResolver",
          "name": "",
          "type": "address"
        }
      ],
      "stateMutability": "view",
      "type": "function"
    },
    {
      "inputs": [
        {
          "components": [
            {
              "internalType": "string",
              "name": "name",
              "type": "string"
            },
            {
              "internalType": "address",
              "name": "owner",
              "type": "address"
            },
            {
              "internalType": "bytes32",
              "name": "secret",
              "type": "bytes32"
            },
            {
              "internalType": "uint256",
              "name": "duration",
              "type": "uint256"
            },
            {
              "internalType": "address",
              "name": "addr",
              "type": "address"
            }
          ],
          "internalType": "struct RNSBulkManager.RegistrationRequest[]",
          "name": "requests",
          "type": "tuple[]"
        }
      ],
      "name": "bulkRegister",
      "outputs": [
        {
          "components": [
            {
              "internalType": "bool",
              "name": "success",
              "type": "bool"
            },
            {
              "internalType": "uint256",
              "name": "index",
              "type": "uint256"
            },
            {
              "internalType": "string",
              "name": "errorMessage",
              "type": "string"
            }
          ],
          "internalType": "struct RNSBulkManager.OperationResult[]",
          "name": "results",
          "type": "tuple[]"
        }
      ],
      "stateMutability": "nonpayable",
      "type": "function"
    },
    {
      "inputs": [
        {
          "components": [
            {
              "internalType": "string",
              "name": "name",
              "type": "string"
            },
            {
              "internalType": "uint256",
              "name": "duration",
              "type": "uint256"
            },
            {
              "internalType": "uint256",
              "name": "expires",
              "type": "uint256"
            }
          ],
          "internalType": "struct RNSBulkManager.RenewalRequest[]",
          "name": "requests",
          "type": "tuple[]"
        }
      ],
      "name": "bulkRenew",
      "outputs": [
        {
          "components": [
            {
              "internalType": "bool",
              "name": "success",
              "type": "bool"
            },
            {
              "internalType": "uint256",
              "name": "index",
              "type": "uint256"
            },
            {
              "internalType": "string",
              "name": "errorMessage",
              "type": "string"
            }
          ],
          "internalType": "struct RNSBulkManager.OperationResult[]",
          "name": "results",
          "type": "tuple[]"
        }
      ],
      "stateMutability": "nonpayable",
      "type": "function"
    },
    {
      "inputs": [
        {
          "components": [
            {
              "internalType": "uint256",
              "name": "tokenId",
              "type": "uint256"
            },
            {
              "internalType": "uint256",
              "name": "duration",
              "type": "uint256"
            }
          ],
          "internalType": "struct RNSBulkManager.TokenIdRenewal[]",
          "name": "requests",
          "type": "tuple[]"
        }
      ],
      "name": "bulkRenewByTokenId",
      "outputs": [
        {
          "components": [
            {
              "internalType": "bool",
              "name": "success",
              "type": "bool"
            },
            {
              "internalType": "uint256",
              "name": "index",
              "type": "uint256"
            },
            {
              "internalType": "string",
              "name": "errorMessage",
              "type": "string"
            }
          ],
          "internalType": "struct RNSBulkManager.OperationResult[]",
          "name": "results",
          "type": "tuple[]"
        }
      ],
      "stateMutability": "nonpayable",
      "type": "function"
    },
    {
      "inputs": [
        {
          "components": [
            {
              "internalType": "bytes32",
              "name": "node",
              "type": "bytes32"
            },
            {
              "internalType": "address",
              "name": "targetAddress",
              "type": "address"
            }
          ],
          "internalType": "struct RNSBulkManager.AddressUpdateRequest[]",
          "name": "requests",
          "type": "tuple[]"
        }
      ],
      "name": "bulkSetAddress",
      "outputs": [
        {
          "components": [
            {
              "internalType": "bool",
              "name": "success",
              "type": "bool"
            },
            {
              "internalType": "uint256",
              "name": "index",
              "type": "uint256"
            },
            {
              "internalType": "string",
              "name": "errorMessage",
              "type": "string"
            }
          ],
          "internalType": "struct RNSBulkManager.OperationResult[]",
          "name": "results",
          "type": "tuple[]"
        }
      ],
      "stateMutability": "nonpayable",
      "type": "function"
    },
    {
      "inputs": [
        {
          "components": [
            {
              "internalType": "bytes32",
              "name": "node",
              "type": "bytes32"
            },
            {
              "internalType": "uint256",
              "name": "coinType",
              "type": "uint256"
            },
            {
              "internalType": "bytes",
              "name": "targetAddress",
              "type": "bytes"
            }
          ],
          "internalType": "struct RNSBulkManager.MultiChainAddressUpdate[]",
          "name": "requests",
          "type": "tuple[]"
        }
      ],
      "name": "bulkSetMultiChainAddress",
      "outputs": [
        {
          "components": [
            {
              "internalType": "bool",
              "name": "success",
              "type": "bool"
            },
            {
              "internalType": "uint256",
              "name": "index",
              "type": "uint256"
            },
            {
              "internalType": "string",
              "name": "errorMessage",
              "type": "string"
            }
          ],
          "internalType": "struct RNSBulkManager.OperationResult[]",
          "name": "results",
          "type": "tuple[]"
        }
      ],
      "stateMutability": "nonpayable",
      "type": "function"
    },
    {
      "inputs": [
        {
          "internalType": "bytes32[]",
          "name": "nodes",
          "type": "bytes32[]"
        },
        {
          "internalType": "address",
          "name": "resolverAddress",
          "type": "address"
        }
      ],
      "name": "bulkSetResolver",
      "outputs": [
        {
          "components": [
            {
              "internalType": "bool",
              "name": "success",
              "type": "bool"
            },
            {
              "internalType": "uint256",
              "name": "index",
              "type": "uint256"
            },
            {
              "internalType": "string",
              "name": "errorMessage",
              "type": "string"
            }
          ],
          "internalType": "struct RNSBulkManager.OperationResult[]",
          "name": "results",
          "type": "tuple[]"
        }
      ],
      "stateMutability": "nonpayable",
      "type": "function"
    },
    {
      "inputs": [
        {
          "internalType": "string[]",
          "name": "names",
          "type": "string[]"
        },
        {
          "internalType": "uint256[]",
          "name": "durations",
          "type": "uint256[]"
        }
      ],
      "name": "calculateRegistrationCost",
      "outputs": [
        {
          "internalType": "uint256",
          "name": "totalCost",
          "type": "uint256"
        }
      ],
      "stateMutability": "view",
      "type": "function"
    },
    {
      "inputs": [
        {
          "internalType": "string[]",
          "name": "names",
          "type": "string[]"
        },
        {
          "internalType": "uint256[]",
          "name": "expires",
          "type": "uint256[]"
        },
        {
          "internalType": "uint256[]",
          "name": "durations",
          "type": "uint256[]"
        }
      ],
      "name": "calculateRenewalCost",
      "outputs": [
        {
          "internalType": "uint256",
          "name": "totalCost",
          "type": "uint256"
        }
      ],
      "stateMutability": "view",
      "type": "function"
    },
    {
      "inputs": [],
      "name": "fifsRegistrar",
      "outputs": [
        {
          "internalType": "contract IFIFSRegistrar",
          "name": "",
          "type": "address"
        }
      ],
      "stateMutability": "view",
      "type": "function"
    },
    {
      "inputs": [
        {
          "internalType": "address[]",
          "name": "targets",
          "type": "address[]"
        },
        {
          "internalType": "bytes[]",
          "name": "callDatas",
          "type": "bytes[]"
        }
      ],
      "name": "multicall",
      "outputs": [
        {
          "internalType": "bool[]",
          "name": "successes",
          "type": "bool[]"
        },
        {
          "internalType": "bytes[]",
          "name": "results",
          "type": "bytes[]"
        }
      ],
      "stateMutability": "nonpayable",
      "type": "function"
    },
    {
      "inputs": [
        {
          "internalType": "address",
          "name": "tokenAddress",
          "type": "address"
        },
        {
          "internalType": "uint256",
          "name": "amount",
          "type": "uint256"
        }
      ],
      "name": "recoverTokens",
      "outputs": [],
      "stateMutability": "nonpayable",
      "type": "function"
    },
    {
      "inputs": [],
      "name": "renewer",
      "outputs": [
        {
          "internalType": "contract IRenewer",
          "name": "",
          "type": "address"
        }
      ],
      "stateMutability": "view",
      "type": "function"
    },
    {
      "inputs": [],
      "name": "rifToken",
      "outputs": [
        {
          "internalType": "contract IERC20",
          "name": "",
          "type": "address"
        }
      ],
      "stateMutability": "view",
      "type": "function"
    },
    {
      "inputs": [],
      "name": "rnsRegistry",
      "outputs": [
        {
          "internalType": "contract IRNS",
          "name": "",
          "type": "address"
        }
      ],
      "stateMutability": "view",
      "type": "function"
    },
    {
      "inputs": [],
      "name": "rskOwner",
      "outputs": [
        {
          "internalType": "contract IRSKOwner",
          "name": "",
          "type": "address"
        }
      ],
      "stateMutability": "view",
      "type": "function"
    },
    {
      "inputs": [
        {
          "internalType": "bytes32[]",
          "name": "nodes",
          "type": "bytes32[]"
        }
      ],
      "name": "verifyOwnership",
      "outputs": [
        {
          "internalType": "bool[]",
          "name": "ownedNodes",
          "type": "bool[]"
        }
      ],
      "stateMutability": "view",
      "type": "function"
    }
  ],
  "bytecode": "0x61014060405234801562000011575f80fd5b50604051620038d4380380620038d483398101604081905262000034916200026e565b6001600160a01b038616620000905760405162461bcd60e51b815260206004820152601460248201527f496e76616c696420524e5320526567697374727900000000000000000000000060448201526064015b60405180910390fd5b6001600160a01b038516620000dc5760405162461bcd60e51b815260206004820152601160248201527024b73b30b634b2102929a59027bbb732b960791b604482015260640162000087565b6001600160a01b038416620001345760405162461bcd60e51b815260206004820152601560248201527f496e76616c69642041646472205265736f6c7665720000000000000000000000604482015260640162000087565b6001600160a01b0383166200018c5760405162461bcd60e51b815260206004820152601660248201527f496e76616c696420464946532052656769737472617200000000000000000000604482015260640162000087565b6001600160a01b038216620001d65760405162461bcd60e51b815260206004820152600f60248201526e24b73b30b634b2102932b732bbb2b960891b604482015260640162000087565b6001600160a01b038116620002225760405162461bcd60e51b815260206004820152601160248201527024b73b30b634b2102924a3102a37b5b2b760791b604482015260640162000087565b6001600160a01b0395861660805293851660a05291841660c052831660e0528216610100521661012052620002eb565b80516001600160a01b038116811462000269575f80fd5b919050565b5f805f805f8060c0878903121562000284575f80fd5b6200028f8762000252565b95506200029f6020880162000252565b9450620002af6040880162000252565b9350620002bf6060880162000252565b9250620002cf6080880162000252565b9150620002df60a0880162000252565b90509295509295509295565b60805160a05160c05160e0516101005161012051613515620003bf5f395f818161018e01528181610ed201528181610fd201528181611b480152611c4801525f818161021b01528181610cbf01528181610fa3015281816110940152612b7a01525f81816102fc01528181610b1a0152818161197001528181611c190152611d0a01525f81816101f401528181610809015261160a01525f81816101cd015261231e01525f81816102d50152818161043601528181610637015281816114410152818161270e01526128d501526135155ff3fe608060405234801561000f575f80fd5b5060043610610106575f3560e01c80634eef59ef1161009e57806369cc5b211161006e57806369cc5b21146102975780637a997cce146102aa578063b35ca70a146102bd578063eafd5ef7146102d0578063fd3fa181146102f7575f80fd5b80634eef59ef1461023d57806358dd097014610250578063620520f71461026357806363fb0b9614610276575f80fd5b8063262ec4a9116100d9578063262ec4a91461018957806335010abf146101c857806337eb1309146101ef578063453a19f614610216575f80fd5b8063069c9fae1461010a5780630c82a9d71461011f5780630c9c39cc146101485780630e132bba14610168575b5f80fd5b61011d610118366004612c9b565b61031e565b005b61013261012d366004612d0c565b6103e4565b60405161013f9190612d85565b60405180910390f35b61015b610156366004612d0c565b610552565b60405161013f9190612de1565b61017b610176366004612e60565b610aee565b60405190815260200161013f565b6101b07f000000000000000000000000000000000000000000000000000000000000000081565b6040516001600160a01b03909116815260200161013f565b6101b07f000000000000000000000000000000000000000000000000000000000000000081565b6101b07f000000000000000000000000000000000000000000000000000000000000000081565b6101b07f000000000000000000000000000000000000000000000000000000000000000081565b61015b61024b366004612d0c565b610c0a565b61015b61025e366004612f06565b61135c565b61015b610271366004612d0c565b6118bb565b610289610284366004612e60565b612052565b60405161013f929190612f38565b61015b6102a5366004612f06565b61226a565b61015b6102b8366004612fa8565b6125af565b61017b6102cb366004612ffa565b612b2f565b6101b07f000000000000000000000000000000000000000000000000000000000000000081565b6101b07f000000000000000000000000000000000000000000000000000000000000000081565b6001600160a01b0382166103715760405162461bcd60e51b8152602060048201526015602482015274496e76616c696420746f6b656e206164647265737360581b60448201526064015b60405180910390fd5b60405163a9059cbb60e01b8152336004820152602481018290526001600160a01b0383169063a9059cbb906044016020604051808303815f875af11580156103bb573d5f803e3d5ffd5b505050506040513d601f19601f820116820180604052508101906103df919061308c565b505050565b6060816001600160401b038111156103fe576103fe6130ab565b604051908082528060200260200182016040528015610427578160200160208202803683370190505b5090505f5b8281101561054a577f00000000000000000000000000000000000000000000000000000000000000006001600160a01b03166302571be3858584818110610475576104756130bf565b905060200201356040518263ffffffff1660e01b815260040161049a91815260200190565b602060405180830381865afa9250505080156104d3575060408051601f3d908101601f191682019092526104d0918101906130d3565b60015b6104ff575f8282815181106104ea576104ea6130bf565b91151560209283029190910190910152610538565b336001600160a01b0316816001600160a01b031614838381518110610526576105266130bf565b91151560209283029190910190910152505b8061054281613102565b91505061042c565b505b92915050565b6060816105715760405162461bcd60e51b81526004016103689061311a565b60648211156105c25760405162461bcd60e51b815260206004820152601b60248201527f546f6f206d616e7920726571756573747320286d6178203130302900000000006044820152606401610368565b816001600160401b038111156105da576105da6130ab565b60405190808252806020026020018201604052801561062657816020015b60408051606080820183525f8083526020830152918101919091528152602001906001900390816105f85790505b5090505f805b83811015610ab0575f7f00000000000000000000000000000000000000000000000000000000000000006001600160a01b03166302571be3878785818110610676576106766130bf565b90506020028101906106889190613147565b60405160e083901b6001600160e01b031916815290356004820152602401602060405180830381865afa9250505080156106df575060408051601f3d908101601f191682019092526106dc918101906130d3565b60015b6107785760405180606001604052805f151581526020018381526020016040518060400160405280601a8152602001792330b4b632b2103a379033b2ba103237b6b0b4b71037bbb732b960311b815250815250848381518110610744576107446130bf565b6020026020010181905250815f8051602061349f83398151915260405161076a90613165565b60405180910390a250610a9e565b90506001600160a01b03811633146108075760405180606001604052805f151581526020018381526020016040518060400160405280601081526020016f2737ba103237b6b0b4b71037bbb732b960811b8152508152508483815181106107e1576107e16130bf565b6020026020010181905250815f8051602061349f83398151915260405161076a90613199565b7f00000000000000000000000000000000000000000000000000000000000000006001600160a01b0316638b95dd71878785818110610848576108486130bf565b905060200281019061085a9190613147565b3588888681811061086d5761086d6130bf565b905060200281019061087f9190613147565b60200135898987818110610895576108956130bf565b90506020028101906108a79190613147565b6108b59060408101906131c3565b6040518563ffffffff1660e01b81526004016108d4949392919061322d565b5f604051808303815f87803b1580156108eb575f80fd5b505af19250505080156108fc575060015b610a4457610908613256565b806308c379a00361098c575061091c6132a7565b80610927575061098e565b60405180606001604052805f1515815260200184815260200182815250858481518110610956576109566130bf565b6020026020010181905250825f8051602061349f8339815191528260405161097e919061332f565b60405180910390a250610a9c565b505b60405180606001604052805f151581526020018381526020016040518060600160405280602181526020016134bf602191398152508483815181106109d5576109d56130bf565b6020026020010181905250815f8051602061349f833981519152604051610a379060208082526021908201527f4d756c74692d636861696e206164647265737320757064617465206661696c656040820152601960fa1b606082015260800190565b60405180910390a2610a9c565b604051806060016040528060011515815260200183815260200160405180602001604052805f815250815250848381518110610a8257610a826130bf565b60200260200101819052508280610a9890613102565b9350505b505b80610aa881613102565b91505061062c565b5060405181815233907f61ea0815db8acf3ca69d0f83c41560397e39235b08b0e13ac980f5b31eb1b951906020015b60405180910390a25092915050565b5f838214610b0e5760405162461bcd60e51b815260040161036890613341565b5f5b84811015610c01577f00000000000000000000000000000000000000000000000000000000000000006001600160a01b03166350e9a715878784818110610b5957610b596130bf565b9050602002810190610b6b91906131c3565b5f888887818110610b7e57610b7e6130bf565b905060200201356040518563ffffffff1660e01b8152600401610ba49493929190613370565b602060405180830381865afa158015610bbf573d5f803e3d5ffd5b505050506040513d601f19601f82011682018060405250810190610be39190613396565b610bed90836133ad565b915080610bf981613102565b915050610b10565b50949350505050565b606081610c295760405162461bcd60e51b81526004016103689061311a565b6032821115610c4a5760405162461bcd60e51b8152600401610368906133c0565b816001600160401b03811115610c6257610c626130ab565b604051908082528060200260200182016040528015610cae57816020015b60408051606080820183525f808352602083015291810191909152815260200190600190039081610c805790505b5090505f805f5b84811015610eaf577f00000000000000000000000000000000000000000000000000000000000000006001600160a01b03166350e9a715878784818110610cfe57610cfe6130bf565b9050602002810190610d109190613147565b610d1a90806131c3565b898986818110610d2c57610d2c6130bf565b9050602002810190610d3e9190613147565b604001358a8a87818110610d5457610d546130bf565b9050602002810190610d669190613147565b602001356040518563ffffffff1660e01b8152600401610d899493929190613370565b602060405180830381865afa925050508015610dc2575060408051601f3d908101601f19168201909252610dbf91810190613396565b60015b610e8f5760405180606001604052805f151581526020018281526020016040518060400160405280601b81526020017f4661696c656420746f206765742072656e6577616c2070726963650000000000815250815250848281518110610e2a57610e2a6130bf565b6020026020010181905250805f8051602061349f833981519152604051610e82906020808252601b908201527f4661696c656420746f206765742072656e6577616c2070726963650000000000604082015260600190565b60405180910390a2610e9d565b610e9981846133ad565b9250505b80610ea781613102565b915050610cb5565b506040516323b872dd60e01b8152336004820152306024820152604481018290527f00000000000000000000000000000000000000000000000000000000000000006001600160a01b0316906323b872dd906064016020604051808303815f875af1158015610f20573d5f803e3d5ffd5b505050506040513d601f19601f82011682018060405250810190610f44919061308c565b610f8c5760405162461bcd60e51b8152602060048201526019602482015278149251881d1bdad95b881d1c985b9cd9995c8819985a5b1959603a1b6044820152606401610368565b60405163095ea7b360e01b81526001600160a01b037f000000000000000000000000000000000000000000000000000000000000000081166004830152602482018390527f0000000000000000000000000000000000000000000000000000000000000000169063095ea7b3906044016020604051808303815f875af1158015611018573d5f803e3d5ffd5b505050506040513d601f19601f8201168201806040525081019061103c919061308c565b505f5b8481101561131757838181518110611059576110596130bf565b60200260200101515f015115801561108e57505f84828151811061107f5761107f6130bf565b60200260200101516040015151115b611305577f00000000000000000000000000000000000000000000000000000000000000006001600160a01b031663acf1a8418787848181106110d3576110d36130bf565b90506020028101906110e59190613147565b6110ef90806131c3565b898986818110611101576111016130bf565b90506020028101906111139190613147565b602001356040518463ffffffff1660e01b8152600401611135939291906133f7565b6020604051808303815f875af192505050801561116f575060408051601f3d908101601f1916820190925261116c91810190613396565b60015b6112ac5761117b613256565b806308c379a0036111ff575061118f6132a7565b8061119a5750611201565b60405180606001604052805f15158152602001838152602001828152508583815181106111c9576111c96130bf565b6020026020010181905250815f8051602061349f833981519152826040516111f1919061332f565b60405180910390a250611305565b505b60405180606001604052805f151581526020018281526020016040518060400160405280600e81526020016d14995b995dd85b0819985a5b195960921b815250815250848281518110611256576112566130bf565b6020026020010181905250805f8051602061349f83398151915260405161129f906020808252600e908201526d14995b995dd85b0819985a5b195960921b604082015260600190565b60405180910390a2611305565b50604051806060016040528060011515815260200182815260200160405180602001604052805f8152508152508482815181106112eb576112eb6130bf565b6020026020010181905250828061130190613102565b9350505b8061130f81613102565b91505061103f565b50604080518381526020810183905233917f549796789b5a5fdfa7acdf1943ce93ef5ab4f43b61fcde8a4e531594d4bd029191015b60405180910390a2505092915050565b60608161137b5760405162461bcd60e51b81526004016103689061311a565b60648211156113cc5760405162461bcd60e51b815260206004820152601b60248201527f546f6f206d616e7920726571756573747320286d6178203130302900000000006044820152606401610368565b816001600160401b038111156113e4576113e46130ab565b60405190808252806020026020018201604052801561143057816020015b60408051606080820183525f8083526020830152918101919091528152602001906001900390816114025790505b5090505f805b83811015611888575f7f00000000000000000000000000000000000000000000000000000000000000006001600160a01b03166302571be3878785818110611480576114806130bf565b9050604002015f01356040518263ffffffff1660e01b81526004016114a791815260200190565b602060405180830381865afa9250505080156114e0575060408051601f3d908101601f191682019092526114dd918101906130d3565b60015b6115795760405180606001604052805f151581526020018381526020016040518060400160405280601a8152602001792330b4b632b2103a379033b2ba103237b6b0b4b71037bbb732b960311b815250815250848381518110611545576115456130bf565b6020026020010181905250815f8051602061349f83398151915260405161156b90613165565b60405180910390a250611876565b90506001600160a01b03811633146116085760405180606001604052805f151581526020018381526020016040518060400160405280601081526020016f2737ba103237b6b0b4b71037bbb732b960811b8152508152508483815181106115e2576115e26130bf565b6020026020010181905250815f8051602061349f83398151915260405161156b90613199565b7f00000000000000000000000000000000000000000000000000000000000000006001600160a01b031663d5fa2b00878785818110611649576116496130bf565b9050604002015f0135888886818110611664576116646130bf565b905060400201602001602081019061167c919061341a565b6040516001600160e01b031960e085901b16815260048101929092526001600160a01b031660248201526044015f604051808303815f87803b1580156116c0575f80fd5b505af19250505080156116d1575060015b61181c576116dd613256565b806308c379a00361176157506116f16132a7565b806116fc5750611763565b60405180606001604052805f151581526020018481526020018281525085848151811061172b5761172b6130bf565b6020026020010181905250825f8051602061349f83398151915282604051611753919061332f565b60405180910390a250611874565b505b60405180606001604052805f15158152602001838152602001604051806040016040528060158152602001741059191c995cdcc81d5c19185d194819985a5b1959605a1b8152508152508483815181106117bf576117bf6130bf565b6020026020010181905250815f8051602061349f83398151915260405161180f906020808252601590820152741059191c995cdcc81d5c19185d194819985a5b1959605a1b604082015260600190565b60405180910390a2611874565b604051806060016040528060011515815260200183815260200160405180602001604052805f81525081525084838151811061185a5761185a6130bf565b6020026020010181905250828061187090613102565b9350505b505b8061188081613102565b915050611436565b5060405181815233907fecf172bb40bfc8da43de792a813b35e4af8c48882d3736c823f3ded4783e38fb90602001610adf565b6060816118da5760405162461bcd60e51b81526004016103689061311a565b60328211156118fb5760405162461bcd60e51b8152600401610368906133c0565b816001600160401b03811115611913576119136130ab565b60405190808252806020026020018201604052801561195f57816020015b60408051606080820183525f8083526020830152918101919091528152602001906001900390816119315790505b5090505f805f5b84811015611b25577f00000000000000000000000000000000000000000000000000000000000000006001600160a01b03166350e9a7158787848181106119af576119af6130bf565b90506020028101906119c19190613435565b6119cb90806131c3565b5f8a8a878181106119de576119de6130bf565b90506020028101906119f09190613435565b606001356040518563ffffffff1660e01b8152600401611a139493929190613370565b602060405180830381865afa925050508015611a4c575060408051601f3d908101601f19168201909252611a4991810190613396565b60015b611b055760405180606001604052805f15158152602001828152602001604051806040016040528060138152602001724661696c656420746f2067657420707269636560681b815250815250848281518110611aaa57611aaa6130bf565b6020026020010181905250805f8051602061349f833981519152604051611af8906020808252601390820152724661696c656420746f2067657420707269636560681b604082015260600190565b60405180910390a2611b13565b611b0f81846133ad565b9250505b80611b1d81613102565b915050611966565b506040516323b872dd60e01b8152336004820152306024820152604481018290527f00000000000000000000000000000000000000000000000000000000000000006001600160a01b0316906323b872dd906064016020604051808303815f875af1158015611b96573d5f803e3d5ffd5b505050506040513d601f19601f82011682018060405250810190611bba919061308c565b611c025760405162461bcd60e51b8152602060048201526019602482015278149251881d1bdad95b881d1c985b9cd9995c8819985a5b1959603a1b6044820152606401610368565b60405163095ea7b360e01b81526001600160a01b037f000000000000000000000000000000000000000000000000000000000000000081166004830152602482018390527f0000000000000000000000000000000000000000000000000000000000000000169063095ea7b3906044016020604051808303815f875af1158015611c8e573d5f803e3d5ffd5b505050506040513d601f19601f82011682018060405250810190611cb2919061308c565b505f5b8481101561201957838181518110611ccf57611ccf6130bf565b60200260200101515f0151158015611d0457505f848281518110611cf557611cf56130bf565b60200260200101516040015151115b612007577f00000000000000000000000000000000000000000000000000000000000000006001600160a01b03166357226363878784818110611d4957611d496130bf565b9050602002810190611d5b9190613435565b611d6590806131c3565b898986818110611d7757611d776130bf565b9050602002810190611d899190613435565b611d9a90604081019060200161341a565b8a8a87818110611dac57611dac6130bf565b9050602002810190611dbe9190613435565b604001358b8b88818110611dd457611dd46130bf565b9050602002810190611de69190613435565b606001358c8c89818110611dfc57611dfc6130bf565b9050602002810190611e0e9190613435565b611e1f9060a081019060800161341a565b6040518763ffffffff1660e01b8152600401611e4096959493929190613449565b5f604051808303815f87803b158015611e57575f80fd5b505af1925050508015611e68575060015b611faf57611e74613256565b806308c379a003611ef85750611e886132a7565b80611e935750611efa565b60405180606001604052805f1515815260200183815260200182815250858381518110611ec257611ec26130bf565b6020026020010181905250815f8051602061349f83398151915282604051611eea919061332f565b60405180910390a250612007565b505b60405180606001604052805f1515815260200182815260200160405180604001604052806013815260200172149959da5cdd1c985d1a5bdb8819985a5b1959606a1b815250815250848281518110611f5457611f546130bf565b6020026020010181905250805f8051602061349f833981519152604051611fa290602080825260139082015272149959da5cdd1c985d1a5bdb8819985a5b1959606a1b604082015260600190565b60405180910390a2612007565b604051806060016040528060011515815260200182815260200160405180602001604052805f815250815250848281518110611fed57611fed6130bf565b6020026020010181905250828061200390613102565b9350505b8061201181613102565b915050611cb5565b50604080518381526020810183905233917f8c9589a0881a9774f33437859c85a770c135e3c7e84f9ce6ac4b4b75dbcf8fb4910161134c565b6060808483146120745760405162461bcd60e51b815260040161036890613341565b60328511156120c55760405162461bcd60e51b815260206004820152601760248201527f546f6f206d616e792063616c6c7320286d6178203530290000000000000000006044820152606401610368565b846001600160401b038111156120dd576120dd6130ab565b604051908082528060200260200182016040528015612106578160200160208202803683370190505b509150846001600160401b03811115612121576121216130ab565b60405190808252806020026020018201604052801561215457816020015b606081526020019060019003908161213f5790505b5090505f5b85811015612260575f80888884818110612175576121756130bf565b905060200201602081019061218a919061341a565b6001600160a01b03168787858181106121a5576121a56130bf565b90506020028101906121b791906131c3565b6040516121c592919061348f565b5f604051808303815f865af19150503d805f81146121fe576040519150601f19603f3d011682016040523d82523d5f602084013e612203565b606091505b50915091508185848151811061221b5761221b6130bf565b60200260200101901515908115158152505080848481518110612240576122406130bf565b60200260200101819052505050808061225890613102565b915050612159565b5094509492505050565b6060816122895760405162461bcd60e51b81526004016103689061311a565b60328211156122aa5760405162461bcd60e51b8152600401610368906133c0565b816001600160401b038111156122c2576122c26130ab565b60405190808252806020026020018201604052801561230e57816020015b60408051606080820183525f8083526020830152918101919091528152602001906001900390816122e05790505b5090505f805b83811015612577577f00000000000000000000000000000000000000000000000000000000000000006001600160a01b031663c475abff86868481811061235d5761235d6130bf565b9050604002015f0135878785818110612378576123786130bf565b905060400201602001356040518363ffffffff1660e01b81526004016123a8929190918252602082015260400190565b5f604051808303815f87803b1580156123bf575f80fd5b505af19250505080156123d0575060015b61250d576123dc613256565b806308c379a00361246057506123f06132a7565b806123fb5750612462565b60405180606001604052805f151581526020018381526020018281525084838151811061242a5761242a6130bf565b6020026020010181905250815f8051602061349f83398151915282604051612452919061332f565b60405180910390a250612565565b505b60405180606001604052805f151581526020018281526020016040518060400160405280600e81526020016d14995b995dd85b0819985a5b195960921b8152508152508382815181106124b7576124b76130bf565b6020026020010181905250805f8051602061349f833981519152604051612500906020808252600e908201526d14995b995dd85b0819985a5b195960921b604082015260600190565b60405180910390a2612565565b604051806060016040528060011515815260200182815260200160405180602001604052805f81525081525083828151811061254b5761254b6130bf565b6020026020010181905250818061256190613102565b9250505b8061256f81613102565b915050612314565b50604080518281525f602082015233917f549796789b5a5fdfa7acdf1943ce93ef5ab4f43b61fcde8a4e531594d4bd02919101610adf565b6060826125f25760405162461bcd60e51b8152602060048201526011602482015270456d707479206e6f64657320617272617960781b6044820152606401610368565b60648311156126435760405162461bcd60e51b815260206004820152601860248201527f546f6f206d616e79206e6f64657320286d6178203130302900000000000000006044820152606401610368565b6001600160a01b0382166126995760405162461bcd60e51b815260206004820152601860248201527f496e76616c6964207265736f6c766572206164647265737300000000000000006044820152606401610368565b826001600160401b038111156126b1576126b16130ab565b6040519080825280602002602001820160405280156126fd57816020015b60408051606080820183525f8083526020830152918101919091528152602001906001900390816126cf5790505b5090505f805b84811015612b26575f7f00000000000000000000000000000000000000000000000000000000000000006001600160a01b03166302571be388888581811061274d5761274d6130bf565b905060200201356040518263ffffffff1660e01b815260040161277291815260200190565b602060405180830381865afa9250505080156127ab575060408051601f3d908101601f191682019092526127a8918101906130d3565b60015b6128445760405180606001604052805f151581526020018381526020016040518060400160405280601a8152602001792330b4b632b2103a379033b2ba103237b6b0b4b71037bbb732b960311b815250815250848381518110612810576128106130bf565b6020026020010181905250815f8051602061349f83398151915260405161283690613165565b60405180910390a250612b14565b90506001600160a01b03811633146128d35760405180606001604052805f151581526020018381526020016040518060400160405280601081526020016f2737ba103237b6b0b4b71037bbb732b960811b8152508152508483815181106128ad576128ad6130bf565b6020026020010181905250815f8051602061349f83398151915260405161283690613199565b7f00000000000000000000000000000000000000000000000000000000000000006001600160a01b0316631896f70a888885818110612914576129146130bf565b90506020020135876040518363ffffffff1660e01b815260040161294b9291909182526001600160a01b0316602082015260400190565b5f604051808303815f87803b158015612962575f80fd5b505af1925050508015612973575060015b612aba5761297f613256565b806308c379a003612a0357506129936132a7565b8061299e5750612a05565b60405180606001604052805f15158152602001848152602001828152508584815181106129cd576129cd6130bf565b6020026020010181905250825f8051602061349f833981519152826040516129f5919061332f565b60405180910390a250612b12565b505b60405180606001604052805f151581526020018381526020016040518060400160405280601381526020017214d95d081c995cdbdb1d995c8819985a5b1959606a1b815250815250848381518110612a5f57612a5f6130bf565b6020026020010181905250815f8051602061349f833981519152604051612aad9060208082526013908201527214d95d081c995cdbdb1d995c8819985a5b1959606a1b604082015260600190565b60405180910390a2612b12565b604051806060016040528060011515815260200183815260200160405180602001604052805f815250815250848381518110612af857612af86130bf565b60200260200101819052508280612b0e90613102565b9350505b505b80612b1e81613102565b915050612703565b50509392505050565b5f858214612b4f5760405162461bcd60e51b815260040161036890613341565b858414612b6e5760405162461bcd60e51b815260040161036890613341565b5f5b86811015612c79577f00000000000000000000000000000000000000000000000000000000000000006001600160a01b03166350e9a715898984818110612bb957612bb96130bf565b9050602002810190612bcb91906131c3565b898986818110612bdd57612bdd6130bf565b90506020020135888887818110612bf657612bf66130bf565b905060200201356040518563ffffffff1660e01b8152600401612c1c9493929190613370565b602060405180830381865afa158015612c37573d5f803e3d5ffd5b505050506040513d601f19601f82011682018060405250810190612c5b9190613396565b612c6590836133ad565b915080612c7181613102565b915050612b70565b509695505050505050565b6001600160a01b0381168114612c98575f80fd5b50565b5f8060408385031215612cac575f80fd5b8235612cb781612c84565b946020939093013593505050565b5f8083601f840112612cd5575f80fd5b5081356001600160401b03811115612ceb575f80fd5b6020830191508360208260051b8501011115612d05575f80fd5b9250929050565b5f8060208385031215612d1d575f80fd5b82356001600160401b03811115612d32575f80fd5b612d3e85828601612cc5565b90969095509350505050565b5f8151808452602080850194508084015f5b83811015612d7a578151151587529582019590820190600101612d5c565b509495945050505050565b602081525f612d976020830184612d4a565b9392505050565b5f81518084525f5b81811015612dc257602081850181015186830182015201612da6565b505f602082860101526020601f19601f83011685010191505092915050565b5f6020808301818452808551808352604092508286019150828160051b8701018488015f5b83811015612e5257888303603f19018552815180511515845287810151888501528601516060878501819052612e3e81860183612d9e565b968901969450505090860190600101612e06565b509098975050505050505050565b5f805f8060408587031215612e73575f80fd5b84356001600160401b0380821115612e89575f80fd5b612e9588838901612cc5565b90965094506020870135915080821115612ead575f80fd5b50612eba87828801612cc5565b95989497509550505050565b5f8083601f840112612ed6575f80fd5b5081356001600160401b03811115612eec575f80fd5b6020830191508360208260061b8501011115612d05575f80fd5b5f8060208385031215612f17575f80fd5b82356001600160401b03811115612f2c575f80fd5b612d3e85828601612ec6565b604081525f612f4a6040830185612d4a565b6020838203818501528185518084528284019150828160051b8501018388015f5b83811015612f9957601f19878403018552612f87838351612d9e565b94860194925090850190600101612f6b565b50909998505050505050505050565b5f805f60408486031215612fba575f80fd5b83356001600160401b03811115612fcf575f80fd5b612fdb86828701612cc5565b9094509250506020840135612fef81612c84565b809150509250925092565b5f805f805f806060878903121561300f575f80fd5b86356001600160401b0380821115613025575f80fd5b6130318a838b01612cc5565b90985096506020890135915080821115613049575f80fd5b6130558a838b01612cc5565b9096509450604089013591508082111561306d575f80fd5b5061307a89828a01612cc5565b979a9699509497509295939492505050565b5f6020828403121561309c575f80fd5b81518015158114612d97575f80fd5b634e487b7160e01b5f52604160045260245ffd5b634e487b7160e01b5f52603260045260245ffd5b5f602082840312156130e3575f80fd5b8151612d9781612c84565b634e487b7160e01b5f52601160045260245ffd5b5f60018201613113576131136130ee565b5060010190565b602080825260139082015272456d707479207265717565737420617272617960681b604082015260600190565b5f8235605e1983360301811261315b575f80fd5b9190910192915050565b6020808252601a90820152792330b4b632b2103a379033b2ba103237b6b0b4b71037bbb732b960311b604082015260600190565b60208082526010908201526f2737ba103237b6b0b4b71037bbb732b960811b604082015260600190565b5f808335601e198436030181126131d8575f80fd5b8301803591506001600160401b038211156131f1575f80fd5b602001915036819003821315612d05575f80fd5b81835281816020850137505f828201602090810191909152601f909101601f19169091010190565b848152836020820152606060408201525f61324c606083018486613205565b9695505050505050565b5f60033d111561326c5760045f803e505f5160e01c5b90565b601f8201601f191681016001600160401b03811182821017156132a057634e487b7160e01b5f52604160045260245ffd5b6040525050565b5f60443d10156132b45790565b6040516003193d81016004833e81513d6001600160401b0381602484011181841117156132e357505050505090565b82850191508151818111156132fb5750505050505090565b843d87010160208285010111156133155750505050505090565b6133246020828601018761326f565b509095945050505050565b602081525f612d976020830184612d9e565b602080825260159082015274082e4e4c2f240d8cadccee8d040dad2e6dac2e8c6d605b1b604082015260600190565b606081525f613383606083018688613205565b6020830194909452506040015292915050565b5f602082840312156133a6575f80fd5b5051919050565b8082018082111561054c5761054c6130ee565b6020808252601a908201527f546f6f206d616e7920726571756573747320286d617820353029000000000000604082015260600190565b604081525f61340a604083018587613205565b9050826020830152949350505050565b5f6020828403121561342a575f80fd5b8135612d9781612c84565b5f8235609e1983360301811261315b575f80fd5b60a081525f61345c60a08301888a613205565b6001600160a01b039687166020840152604083019590955250606081019290925290921660809092019190915292915050565b818382375f910190815291905056fe922018c9e0e3792fd6f2935189a91548c9ea62e37498aab6e2c0c571c2b9793a4d756c74692d636861696e206164647265737320757064617465206661696c6564a26469706673582212204525f3b409536464bc738690e7ad29e2a14f64e6a6013203157ba3fa80c1241c64736f6c63430008140033",
  "linkReferences": {},
  "deployedLinkReferences": {},
  "immutableReferences": {
    "11": [
      {
        "length": 32,
        "start": 725
      },
      {
        "length": 32,
        "start": 1078
      },
      {
        "length": 32,
        "start": 1591
      },
      {
        "length": 32,
        "start": 5185
      },
      {
        "length": 32,
        "start": 9998
      },
      {
        "length": 32,
        "start": 10453
      }
    ],
    "14": [
      {
        "length": 32,
        "start": 461
      },
      {
        "length": 32,
        "start": 8990
      }
    ],
    "17": [
      {
        "length": 32,
        "start": 500
      },
      {
        "length": 32,
        "start": 2057
      },
      {
        "length": 32,
        "start": 5642
      }
    ],
    "20": [
      {
        "length": 32,
        "start": 764
      },
      {
        "length": 32,
        "start": 2842
      },
      {
        "length": 32,
        "start": 6512
      },
      {
        "length": 32,
        "start": 7193
      },
      {
        "length": 32,
        "start": 7434
      }
    ],
    "23": [
      {
        "length": 32,
        "start": 539
      },
      {
        "length": 32,
        "start": 3263
      },
      {
        "length": 32,
        "start": 4003
      },
      {
        "length": 32,
        "start": 4244
      },
      {
        "length": 32,
        "start": 11130
      }
    ],
    "26": [
      {
        "length": 32,
        "start": 398
      },
      {
        "length": 32,
        "start": 3794
      },
      {
        "length": 32,
        "start": 4050
      },
      {
        "length": 32,
        "start": 6984
      },
      {
        "length": 32,
        "start": 7240
      }
    ]
  },
  "inputSourceName": "project/contracts/RNSBulkManager.sol",
  "buildInfoId": "solc-0_8_20-b7193972c93e3628712ba9d06ce3a956f1642d76"
}